:1000000001100A002D00000060310000FF00000018
:10001000021A44E49002C6F0A3F022022AEB000781
:100020000108020503010401050606010701080A8B
:1000300009010A010B030C050D0A0E010F02100A3B
:10004000113C12011301143C1501FF02289B53BA05
:10005000FEE5B920E004E51D6005E5B930E1FBE40B
:10006000F5BF53B9FD53B9FEF51D22021FB2900230
:100070008B12081F120DFA405890028B12079990AC
:10008000003E12081FE47F14FEFDFC90003E120D9E
:100090005A780A12070590004212081FE490029352
:1000A000F0900293E0FFC39404502675F00CEF909B
:1000B00000811208811207B1C000120F2FD0001268
:1000C0000E3E900293E075F004120F58120E9280CB
:1000D000D0120E9C120F58120799E47B23FAF9F8FC
:1000E0001205C1780A1207059000BA12081F900085
:1000F000421207B190003E120DABC004C005C0060D
:10010000C0079000421207B190028B120DAB900213
:10011000A612081F9002AA12083700010000D0079B
:10012000D006D005D00412235490004612081F9028
:1001300000BA1207B190028F120DABC004C005C007
:1001400006C0079002A61208370001000090004682
:100150001207999002AA12081FD007D006D005D026
:100160000412235490029A12081F9000BA120799A1
:10017000AB07AA0690029A120799EF2BFBEE3AFA08
:10018000900078E0F975F0049001261208811207BA
:1001900099C3EB9FFFEA9EFEE99000BE120F5EEE50
:1001A000F0A3EFF0120D22FD12309AD3EF94C8EEB7
:1001B0009400400C120E9C120CEF9002A9048025B2
:1001C000120D22FD12309AD3EF9464EE9400120EB9
:1001D0009C400A120CEF9002A974028008120CEFE6
:1001E0009002A97403F0122A99900078E09000C65A
:1001F000120DC4EEF0A3EFF0120E9CA42416F974B5
:1002000001120CF59002A97406F0122A9990007858
:10021000E0900106120F05EEF0A3EFF0900257E018
:100220007002A3E07057FFE4900293F0900293E015
:10023000FEC39404502D75F00AEF9000E01208817F
:10024000EE120D399000DE120EA4C083C08290021F
:1002500093E0D082D083120DC4ECF0A3EDF0120E27
:100260009580C975F002EF9000C6120D3C9000E633
:10027000120EA4ECF0A3EDF00FEFB404AA900296D6
:1002800012083700000000E4900293F0120F64C0DF
:1002900004C005C006C007900078E0FD9000DE12A3
:1002A0000EA6C083C082900293E0D082D083120D4C
:1002B000C4E0FEA3E09000C6120D37FD12309AABE9
:1002C00007AA06E4F9F8D007D006D005D004120535
:1002D000A6900296120E92E0C3940540AF120F64EE
:1002E000900078120DC0EEF0A3EFF0900078E0647B
:1002F00003707C74FFFFFEE4900293F0900293E0A1
:10030000FDC39404502375F002ED900138120D3CAA
:10031000C39FEC9E500E900293E0A3F0120DC1E03B
:10032000FEA3E0FF120E9580D39001D2120DC0E023
:10033000FEA3E0D3941EEE94004034900294E0902B
:1003400001D2F0A3E090010E120CFE9001CE120D2E
:10035000BAC006C0079001D2E090010E120F05123C
:100360000E61D007D0061205B39001CE12081F907F
:1003700001CE1207999001D2E075F0029000BE12F2
:100380000D3C2FFFEC3E900136F0A3EFF09001D230
:10039000E0A3F0900078E0FF75F002900106120DE6
:1003A0003CFDEF90010E120F5EECF0A3EDF07A0130
:1003B0007978120D71741CF0900136120E467A0194
:1003C0007940122C0F7A0179401204BC9001791205
:1003D000081F90017D120F6A9001791204AB700220
:1003E000A3E0701E7F607E09120D6540051204981F
:1003F0008010120D6090029540057401F080037426
:1004000008F0900179120EC47A0179811229F590D1
:10041000017D12081F7A0179BD120D71741CF090D4
:100420000078E075F0029000BE120881120E467A44
:10043000017985122C0F7A0179851204BC9001BED6
:1004400012081F9001C2120F6A9001BE1204AB7015
:1004500002A3E0701E7F607E09120D654005120444
:10046000988010120D6090029540057401F0800391
:100470007408F09001BE120EC47A0179C61229F5F3
:100480009001C212081F900221E070059001BE8009
:100490000A900221E0B4010C9001791207999002B0
:1004A0009612081F120F6422E4900295F07F121238
:1004B0002E2190025DEEF0A3EFF022120799122D8B
:1004C0002590029E12081F90025DE0227B017D1C98
:1004D0001221EDAF41AE40AD3FAC3E22BB010689DB
:1004E000828A83E0225002E722BBFE02E322898255
:1004F0008A83E49322BB010989828A83F8E028F089
:1005000022500327F722BBFE05F8E328F3228A8353
:100510008982F8E4932822BB010689828A83F0222B
:100520005002F722BBFE01F322EF8DF0A4A8F0CF1A
:100530008CF0A428CE8DF0A42EFE22C5F0F8A3E006
:1005400028F0C5F0F8E582158270021583E038F0D6
:1005500022BB0110E58229F582E5833AF583E0F5B7
:10056000F0A3E0225009E92582F886F008E622BBD4
:10057000FE0AE92582F8E2F5F008E222E5832AF591
:1005800083E993F5F0A3E99322F8BB0111E58229F1
:10059000F582E5833AF583E8F0E5F0A3F02250090F
:1005A000E92582C8F608A6F022BBFE09E92582C823
:1005B000F2E5F008F222EF2BFFEE3AFEED39FDEC0A
:1005C00038FC22C3EF9BFFEE9AFEED99FDEC98FC00
:1005D00022E88FF0A4CC8BF0A42CFCE98EF0A42CA4
:1005E000FC8AF0EDA42CFCEA8EF0A4CDA8F08BF0F0
:1005F000A42DCC3825F0FDE98FF0A42CCD35F0FCEE
:10060000EB8EF0A4FEA9F0EB8FF0A4CFC5F02ECDB9
:1006100039FEE43CFCEAA42DCE35F0FDE43CFC229E
:1006200075F008758200EF2FFFEE33FECD33CDCC91
:1006300033CCC58233C5829BED9AEC99E582984014
:100640000CF582EE9BFEED9AFDEC99FC0FD5F0D6F1
:10065000E4CEFBE4CDFAE4CCF9A88222B800C1B91B
:100660000059BA002DEC8BF084CFCECDFCE5F0CB59
:10067000F97818EF2FFFEE33FEED33FDEC33FCEB92
:1006800033FB10D703994004EB99FB0FD8E5E4F94D
:10069000FA227818EF2FFFEE33FEED33FDEC33FC3A
:1006A000C933C910D7059BE99A4007EC9BFCE99A2E
:1006B000F90FD8E0E4C9FAE4CCFB2275F010EF2F73
:1006C000FFEE33FEED33FDCC33CCC833C810D70773
:1006D0009BEC9AE899400AED9BFDEC9AFCE899F8AE
:1006E0000FD5F0DAE4CDFBE4CCFAE4C8F922EB9FB5
:1006F000F5F0EA9E42F0E99D42F0EC6480C8648027
:100700009845F022EB9FF5F0EA9E42F0E99D42F019
:10071000E89C45F022E8600FECC313FCED13FDEEFE
:1007200013FEEF13FFD8F122E8600FEFC333FFEEA3
:1007300033FEED33FDEC33FCD8F122BB010DE58235
:1007400029F582E5833AF5830207995007E9258266
:10075000F80208BBBBFE07E92582F80207A5E5827F
:1007600029F582E5833AF5830208C7BB0107898230
:100770008A8302081F5005E9F80208F4BBFE05E968
:10078000F802082B22BB010DE58229F582E5833AA8
:10079000F58302081F5007E92582F80208F4BBFE22
:1007A00007E92582F802082B22E0FCA3E0FDA3E084
:1007B000FEA3E0FF22E2FC08E2FD08E2FE08E2FF01
:1007C00022E0F8A3E0F9A3E0FAA3E0FB22E2FB08B1
:1007D000E2F908E2FA08E2CBF822BB010789828A33
:1007E000830207B15005E9F80208D7BBFE05E9F816
:1007F0000207BD89828A830208E47401FF3395E011
:10080000FEFDFCA3A3A3E0CF2FF0E58215827002CA
:100810001583E0CE3EF0E582158270021583E0CDAF
:100820003DF0E582158270021583E0CC3CF022ECAD
:10083000F0A3EDF0A3EEF0A3EFF022ECF208EDF25E
:1008400008EEF208EFF222A8828583F0D083D082EE
:1008500012084E12084E12084E12084EE473E4932A
:10086000A3C583C5F0C583C8C582C8F0A3C583C529
:10087000F0C583C8C582C822D083D082E493F20831
:10088000740193F208740293F208740393F27404EF
:1008900073A42582F582E5F03583F58322FAE6FB21
:1008A0000808E6F925F0F618E6CA3AF622E0FBA3B6
:1008B000E0FAA3E0F922EBF0A3EAF0A3E9F022E4E6
:1008C00093FB740193FA740293F922E6FC08E6FDA7
:1008D00008E6FE08E6FF22E493FC740193FD74022F
:1008E00093FE740393FF22E6FB08E6F908E6FA0894
:1008F000E6CBF822E493F8740193F9740293FA7446
:100900000393FB22ECF608EDF608EEF608EFF6226C
:1009100090028BEEF0A3EFF0A3ECF0A3EDF0E4A3D4
:10092000120DF9400E90028DE0FFA3E0900290CFEF
:10093000020CAE90005CE0FF600864016004EFB45C
:10094000020CEF25E02456F582E43400800D90007F
:100950005CE025E0244AF582E43400120CCF9002DA
:1009600092EEF0A3EFF090005CE025E02450F582D9
:10097000E43400120CCF900294EEF0A3EFF090015B
:10098000FFE0FF600864016004EFB4020975F00243
:10099000EF9001F9800A9001FFE075F0029001EDFF
:1009A000120D3C120CE2900296EEF0A3EFF09001D3
:1009B000FFE075F0029001F3120D3C120CE2900280
:1009C00098EEF0A3EFF090028D120D04C006C00760
:1009D000900200120E61D007D0061205B390029A61
:1009E00012081F900220E0FF600864016004EFB469
:1009F0000208120F389002148006120F389001FC82
:100A0000120DA290029E12081F120F3890020812B7
:100A10000DA29002A212081F900298120D049002DB
:100A20006C12081F900296E0FAA3E0FBFFAE02E40E
:100A3000FCFD90027012081F900294120D049002A7
:100A40007412081F900292120D0490027812081F6F
:100A5000D37817E294AC18E2940D500990022AE082
:100A60006003020B9A900251E07002A3E06003025F
:100A70000B9AD3900269E09400900268E0940040E1
:100A80004E900282E4F0A304F0EB94B0EA940440A8
:100A900003020B6DC3900297E09420900296E094BD
:100AA00003500FC3900299E09478900298E0940567
:100AB000401AC3900295E09414120E5A4003020BA0
:100AC0004E120E084003020B94020B6D020B949021
:100AD0000221E064017056900282F0A37402F0C318
:100AE000900297E094C2120E734006120D0D020B95
:100AF0006D120E6C5005120ED2402F120E53400391
:100B0000020B4E120E084003020B94120E6C4006AC
:100B1000120D0D020B6D120ED25003020B9A120F22
:100B2000829002A2120D16020B6D020B94900282AB
:100B3000E4F0A37403F0C3900297E09496120E8140
:100B40004006120D0D020B6D120E7A5005120EE0CA
:100B50004052C3900295E09408120E5A4010120DB4
:100B6000B1120D1C7F0D122E21900253802F120EF8
:100B7000084002802F120E7A400D120D0D7F0C12CC
:100B80002E219002518016120EE0401E120F82900C
:100B900002A2120D167F0C122E21900251EEF0A32C
:100BA000EFF08006120DB1120D1C90028D120D0493
:100BB000C004C005C006C007900204120DCAD007C9
:100BC000D006D005D0041205B39002A612081FE487
:100BD0007FFF7EFF9002A6120D68400C9002A612C5
:100BE00008370000FFFF802BE4FFFEFDFC9002A60B
:100BF0001207B1C31206F4501A12294C120E1640F5
:100C0000087F14122E21120EAC9002A61208370093
:100C10000027109002A6120799900290EEF0A3EF21
:100C2000F0900221E0703FC3900293E0940A90029A
:100C300092E094004006120DD67401F0120DD6E039
:100C40007002C21DE4FF745D2F120DDCE07004C25F
:100C50001D801890028FE004F0E0B40602D21D0F50
:100C6000EFB406E28005120DD6E4F090025BE0706E
:100C700002A3E0704F900259E07002A3E07045902B
:100C80000221E0701C301D197F10122E2190025994
:100C9000EEF0A3EFF09002217401F0D21BC21D8090
:100CA00035900221E06401702D120E5350287F11FF
:100CB000122E217C007D0F12051990025BEEF0A32D
:100CC000EFF0801290025BE07004A3E06401700614
:100CD000900221F0D21C900290E0FEA3E0FF22F5EA
:100CE00083E0FCA3E0FD90028BE0FEA3E0FF123066
:100CF0009A22FD90028DE0FEA3E0FF12309A22A41A
:100D000024CEF9740035F0FA7B01E09000BE75F056
:100D100002120881E0FEA3E0FFE4FCFD2290020441
:100D200012079990029E1207B11205B390020402B5
:100D3000081F900078E0FD75F0029000C61208814F
:100D4000E0FEA3E09000BEFFED75F002120881E026
:100D5000FCA3E02274FFFE90028DFDFC1207B1D3CC
:100D60000206DEE47FE87E03FDFC1207B10205C146
:100D7000E47F207E0390029EFDFC1207B1D30206A1
:100D8000F47B019002A51208A69002A82224FFFF7E
:100D9000EE34FFFE3395E0FDFC1207CA0205C19058
:100DA000028AE075F00CA42479F9740035F0FA7B1E
:100DB00001221208811207B190020412079902055C
:100DC000B390020412079990029A1207B10205A685
:100DD000E090013875F002020881120799AB07AA6A
:100DE00006A905A8042290005CE0245DF582E434A5
:100DF00000F583229002AE12081F9002A61207B1DE
:100E00009002AE12079902064CF0D3900236E0949D
:100E100000900235E0940022D3900254E0940090B8
:100E20000253E0940022900064E02496FF90006357
:100E3000E03400FED37809E29F18E29E229002A5DA
:100E400012089D0204CCFFE4FCFDFE1207BD120552
:100E5000C17807020705E0FFA3E09002A9CFF0A345
:100E6000EFF022C3900295E0940A900294E094007F
:100E700022E0FEA3E0FBAA06E4F9F822C390029761
:100E8000E0942C900296E0940122C3900297E094A3
:100E900064900296E0940022E0FF74017E00A807AF
:100EA000082212081F900293E004F022900078E0DC
:100EB00075F00422FDEF75F00A0208817C007D03C5
:100EC000120519900268EEF0A3EFF02212089D744B
:100ED000010204E5120799900295E09002A9F07BC7
:100EE0000122C3900299E0940D900298E0940222AE
:100EF000C3900299E094AF900298E094002275F0BC
:100F000004A4F58285F083229002941208A6900230
:100F1000977403F02275F0020208811207058F27EB
:100F20008E268D258C24221207058F278E268D254F
:100F30008C24221207058F278E268D258C2422785B
:100F400057E6FFE4FCFDFE22900220E075F004224B
:100F500012089D02075B12081F9002AA020799124D
:100F600007A590029802081F9000AA02088175F058
:100F7000020208819002960207991207999002A630
:100F800002081F1205A690022302081F9002910278
:100F90000799900204020799E49002ABF0EF700306
:100FA00002115D12003E9001CA12083700000000D5
:100FB000E49002ACF09002B11208370000000090FB
:100FC00002ACE0FF122BD4121C129002AD12081FCB
:100FD000E49002AAF09002AD1207999002ACE0757D
:100FE000F00C900079120881C083C0829002AAE0C0
:100FF000D082D08375F00412088112081F121C27BA
:10100000E0B403D178579002AD121C019002AD12EA
:10101000081F9002ACE0FF9000BE121B6A9000C651
:10102000121B69900106121B6975F002EF90010E08
:10103000121B6D75F004EF9000CE12088112083774
:10104000009C40009002ACE0FB75F0049001161289
:101050000881120837009C4000121BAB75F004EBAE
:1010600090012612088112081FE49002AAF0900253
:10107000AAE0FFC3940550159002ACE075F00A9009
:1010800000DE120881121B69121C2780E19002B158
:101090001207B1121BAB1205A69002B112081F90E5
:1010A00002ACE004F0C394045003020FAF90013689
:1010B000121B709002ABE0FF75F002900185121BCD
:1010C0006D900136E0FCA3E0FD75F002EF90014069
:1010D000120881ECF0A3EDF09001CA1207B1900163
:1010E00036E0FEA3E0FFE4FCFD1205A69001CA1263
:1010F000081F9002ABE004F0C3941C5003020FA041
:10110000121BCE900179121BCB90017D121BCB7864
:1011100006120718900181121BCB9001BE121BCB47
:101120009001C2121BCB78061207189001C6120854
:101130001FE49001D2F0A3F0A3F09001CE12083783
:1011400000000000E49002AAF09002AAE0FFC3941D
:1011500005500F75F002EF9001D7121B6D121C277E
:1011600080E79001E2121B70E49002DFF09001BE74
:10117000121BAE90006A12081F9000701208370010
:10118000000000E4900076F0A3F07814121C3A7886
:1011900012121C3AE47816F208F2900227F0A3F03B
:1011A0009001D5121B70E49001E4F0A3F0A3121B90
:1011B00070A31208370009C4009001EC121B70A341
:1011C0001208370009C4009001F2740AF09002027C
:1011D000121B7090022312083700000000900200DA
:1011E000121B7090020412083700000000E4900205
:1011F000AAF09002AAE0FB75F004900208120881A0
:101200001208370000000075F002EB9001F3121B8A
:101210006D121C27E0B406DAE4900259F0A3F0A3A3
:10122000F0A3F0900221F0A3F02290022FE475F0D9
:101230000112052BD3900234E09400900233E09425
:10124000004003122F3BD3900236E0940090023509
:10125000E094004003122F3BD3900238E0940090BA
:101260000237E094004003122F3BD390023EE094FB
:101270000090023DE09400400F122F3B90023DE0B1
:101280007002A3E07002D210D390023CE094009070
:10129000023BE094004003122F3BD390023AE094CB
:1012A00000900239E094004003122F3B900229E0A5
:1012B00030E011E490023FF0A3F0A3F0A3F0A3F01C
:1012C000A3F08042D3900240E0940090023FE0946B
:1012D00000401A122F3B90023FE07002A3E0700D15
:1012E0007F0A122E21900243EEF0A3EFF0D390027A
:1012F00044E09400900243E09400400A900241E4EC
:1013000075F00112052BD3900248E094009002473B
:10131000E094004003122F3BD3900252E0940090DF
:101320000251E094004003122F3BD3900254E0940A
:1013300000900253E094004003122F3BD3900256DA
:10134000E09400900255E094004003122F3BD390AC
:101350000258E09400900257E094004005122F3BA1
:10136000800D7F0F122E21900257EEF0A3EFF0D3E5
:1013700090025AE09400900259E094004003122F2A
:101380003BD390025CE0940090025BE09400400349
:10139000122F3BD390025EE0940090025DE0940037
:1013A0004003122F3BD3900269E09400900268E062
:1013B00094004003122F3BD3900267E09400900208
:1013C00066E094004003122F3BD390026BE0940040
:1013D00090026AE094004003122F3B227B017A01C5
:1013E00079E8E4FCFD9002997405F0122A47900117
:1013F000E6EEF0A3EF120DF9400302148130000372
:101400000214819001D5120D04C006C0079001E6B8
:10141000120E61D007D0061205B390028D12081F7C
:10142000E47FFA120D46400302147AE47FB4120DF1
:10143000464003021481E47F64120D464008900286
:10144000917408F0805174FF7FF1FEFDFC90028DD5
:101450001207B1C31206DE4008900291740AF080B0
:10146000367F9C120D4440089002917407F080274B
:101470007F4C120D444002801874FF7F06120D4607
:1014800040089002917404F0800DE4900291F08085
:10149000069002917405F0900291E09001F2F090B4
:1014A00001D5120D04900291E0900299F07B017A2F
:1014B0000179EE122A4790028BEEF0A3EFF0900232
:1014C00055E07002A3E0707C7F0E122E21EEC31354
:1014D000FEEF13FF900255EEF0A3EFF07B017A00D0
:1014E000795C120D737406F07808E2FF08E2A3CF6E
:1014F000F0A3EFF07A007950122C0F7B017A01797A
:10150000FF120D737406F090028B120E467A017969
:10151000F3122C0F7B017A0279209002951208A613
:101520009002987406F0120F8290029912081F7AA6
:10153000027908122CB87816E2FF08E2900227CF51
:10154000F0A3EFF090028BE0FEA3E0FF2290028A6E
:10155000EEF0A3EFF0E4A3F0D3900240E09400900B
:10156000023FE0940040061220C902165530005494
:101570001220D840089001E4ECF0A3EDF012208591
:10158000500512209340030215CB1220A0502F903B
:10159000024CE064016027780890004A1220BE12D5
:1015A000168E400F90028AE013FEA3E013D31220A0
:1015B000B2500BA215301401B3400302165B122087
:1015C000F702165512208550051220934013122061
:1015D000D840089001E4ECF0A3EDF01220F70216D9
:1015E0005B90024CE0B4010F7812E2FF08E208CFF2
:1015F000F208EFF20216559000701207B1C00078A1
:1016000012E2FE08E2FFE4FCFDD0001205A6900005
:101610007012081F1220A050317808E2FE08E2FF85
:1016200090004AE0FCA3E0FD12168E501DA215307A
:101630001401B34015900243E0FEA3E0FFD39002F3
:1016400042E09F900241E09E4021900076E0FEA3A0
:10165000E0FFFBAA06E4F9F8900070120799120661
:101660004CEE1220FF90028C7401F090028CE0602E
:101670002CE4900076F0A3F0900070120837000080
:101680000000E49001E4F0A3F01220C9E490024CC1
:10169000F090024AF0A3F090024112207D22123015
:1016A0009AD3EF9414EE940022E490028BF07B0125
:1016B0007A00793D120EF87800120F4F7A007931D6
:1016C000122C817B017A0079311217C17B32FAF931
:1016D000F8C31206F4500690028B7401F09002DFFA
:1016E000E090028AF0E490028CF0120D8FC002C0EC
:1016F000017A0079A9120EF8780A120F4FD001D0A2
:1017000002122C81120D8F1217C17BF47A01F9F8A5
:10171000C31206F4500690028C7401F0300045901C
:10172000028BE07004A3E0603BD21A7B017A00795F
:101730003112178F7856120F3190028D120D5A7890
:1017400007120705780412082B120D8F12178F123B
:101750000F2F90028D120D5A7807120705780E127E
:10176000082B8038C21A7856E67800120E367804B4
:1017700012082B78041207A5EC4D4E4F70037F0220
:10178000227857E6780A120E36780E12082B780E59
:101790001207A5EC4D4E4F70037F02227F04227D7D
:1017A00003121D3DC3E5419539FFE5409538FEE53F
:1017B0003F9537FDE53E9536FCC3EF953DFFEE9531
:1017C0003CFEED953BFDEC953AFC90028D12081F16
:1017D000227D03121D3DC3E539953DFFE538953C5B
:1017E000FEE537953BFDE536953AFCE4229002296B
:1017F000E090022EF012208550051220934007E45D
:10180000900229F08008122650900229EFF09002F1
:1018100029E0FF122C48EF700D122085500812208D
:1018200093500302191C90022AE07036900063F076
:10183000A3F01225CA122FBE7F01122E21122115EC
:10184000401B30140DEF7803CEC313CE13D8F9FF2D
:10185000800BEF7806CEC313CE13D8F9FF12153DD7
:10186000806C900063E07002A3E070069000631249
:1018700020CC900064E02496FF900063E03400FEEA
:10188000D37809E29F18E29E40447816E2FC08E211
:10189000FD900227E0FEA3E0FFD39DEE9C402F12B7
:1018A000309AAC06AD07900227E0C313FEA3E01305
:1018B000C39DEE9C50187F13122E21EF7802CEC3E9
:1018C00013CE13D8F9FF900266EEF0A3EFF090026A
:1018D00066E07004A3E06401701712294C7F1412B3
:1018E0002E217C007D03120519900268EEF0A3EF13
:1018F000F090022AE0FFA3E06F6031122B88900283
:101900002CE030E421D312209350051220864009A8
:10191000E490023FF0A3F0800D7F06122E2190028A
:101920003FEEF0A3EFF090022AE0A3F02290028BAA
:1019300012081F90006A120DCA90028B120DAB9014
:10194000029112081F301B3C9002231207B1C00005
:10195000C001C002C0039001C2120799C004C005B3
:10196000C006C00790017D120DCAD007D006D00571
:10197000D0041205B3D003D002D001D000120F73EF
:10198000C21B803D301C3A9002231207B1C000C038
:1019900001C002C00390017D120799C004C005C0B8
:1019A00006C0079001C2120DCAD007D006D005D0DC
:1019B000041205B3D003D002D001D000120F73C2BD
:1019C0001C120F7C900223120DBA90029112081F74
:1019D000E47FFF7EFF900291120D4A400C9002912D
:1019E0001208370000FFFF8021120F7CEC33501AE1
:1019F00012294C120E1640087F14122E21120EAC22
:101A000090029112083700002710120F7C90028F6D
:101A1000EEF0A3EFF07B017A0179E1120D7374050A
:101A2000F0A3EEF0A3EFF07A0179D7122C0FA215F4
:101A3000301401B350157B017A0179D77D0512214D
:101A4000ED9001E2E544F0A3E545F090028FE0FE61
:101A5000A3E0FF22439F04E453C6DFE5C600B5C6FA
:101A6000F375830075820775FD0DE4E5FEF4FF75DF
:101A7000830075820675FD0DE4E5FEB50704F59E4D
:101A80008003759E0078100000D8FC53C6E043C662
:101A90000843C6807596077597097583007582049B
:101AA00075FD0DE5FD0404F58F75830075820375E2
:101AB000FD0DE4E5FEF4FF75830075820275FD0DF2
:101AC000E4E5FEB50704F595800375958375BE0EB4
:101AD0005392FE9001007F007E02E4F0A3DFFCDE63
:101AE000FA78007F00E4F208DFFC78FFE4F6D8FD26
:101AF0007581C0021B240200000223FEE493A3F8B8
:101B0000E493A34003F68001F208DFF48029E49314
:101B1000A3F85407240CC8C333C4540F4420C8830B
:101B20004004F456800146F6DFE4800B010204080D
:101B300010204080903084E47E019360BCA3FF5469
:101B40003F30E509541FFEE493A360010ECF54C05B
:101B500025E060A840B8E493A3FAE493A3F8E493E3
:101B6000A3C8C582C8CAC583CAF0A3C8C582C8CAEB
:101B7000C583CADFE9DEE780BEEF75F00212088197
:101B80007427F0A37410F0221205C190028A120883
:101B90001F9002621207B190028A12079912064C36
:101BA000780812070590028A12081F7F0FE4FEFDD5
:101BB000FC90028A1207B1D30206F49002AD12071C
:101BC00099EF24F0FFEE34D8FEED34FFFDEC34FF46
:101BD000FC2290001BE090312E932212081F9001EE
:101BE000CA02079990028A120799C3EF940FFFEE79
:101BF0009400FEED9400FDEC9400FC90028A020833
:101C00001F75BBFF75A9C075AC0175AD8075AE8041
:101C100022E6FFE4FCFDFE1207B11205C1780702BF
:101C20000705122EA490001BE0FF022839E5BAF048
:101C300053BA0F43BA10229002AAE004F022E0F552
:101C4000B3A3E0F5B2A3E0F5B1227427F208741053
:101C5000F22290001AE090312E93F5AB2290028F81
:101C600012079990028B2290028F12079990028B93
:101C700022E49002ABF0EF607B12003E900029124C
:101C8000083700000000122EA490002912283112FB
:101C900005A690002912081F9002ABE004F0C3943F
:101CA0001C40E3E0FFFBE4FAF9F8900029120799E1
:101CB00012064C9002AC12081F78569002AC121C0F
:101CC00001780412082BE49002AAF09002AAE0FB2B
:101CD000C39403501F9002AC120799EB25E025E056
:101CE0002431F582E43400F58312081F9002AAE043
:101CF00004F080D778041207A5121BB190002512BA
:101D0000081F90004A121B70A31208370009C40074
:101D1000E49002AAF09002AAE0FFC394065023EFD9
:101D200025E02450F582E43400F583121B70745DC5
:101D30002FF582E43400F583E4F09002AAE004F089
:101D400080D3E490005CF07808121C3A2290029153
:101D50001208A6900294EDF0E4F528F527F526F593
:101D60002574FFF52CF52BF52AF529E4F530F52F30
:101D7000F52EF52DF524900294E0FFE524C39F5045
:101D80007090029112089D75F004E524A4F58285F7
:101D9000F08312072B8F348E338D328C31AF28AE07
:101DA00027AD26AC25D3122F54400C85342885331B
:101DB00027853226853125AF2CAE2BAD2AAC29C321
:101DC000122F54500C85342C85332B85322A8531C3
:101DD00029E5302534FFE52F3533FEE52E3532FD7C
:101DE000E52D35318F308E2F8D2EF52D0524021DDA
:101DF00066852839852738852637852536852C3D03
:101E0000852B3C852A3B85293A853041852F4085A5
:101E10002E3F852D3E900294AF30AE2FAD2EAC2DCF
:101E2000122F42227B077A0790028B12083700009C
:101E3000000012003EEB601A74017E00A8030880C7
:101E400005C333CE33CED8F9FFADACEF5D70031BC5
:101E500080E3EA601A74017E00A802088005C3339B
:101E6000CE33CED8F9FFADAEEF5D70031A80E3AF8D
:101E7000037401A807088002C333D8FCF5AC7401D1
:101E8000A802088002C333D8FCFFF5AD8FAE53AA79
:101E9000CF43AA0490028A121C1D121BC242AB122D
:101EA0001C1290028F12081F121C571207B1C31286
:101EB00006F45006121C5712081F90028B1207B12D
:101EC000C00090028B1207997803120705D0001208
:101ED00005A690028B12081F90028B1207999000A2
:101EE0006512081F43AA3053AAFB90028AE0F5BA94
:101EF000121BC2F452AB121BF7227B077A07900227
:101F00008B1208370000000012003EEB601A7401CB
:101F10007E00A803088005C333CE33CED8F9FFADC9
:101F2000ACEF5D70031B80E3EA601A74017E00A8C9
:101F300002088005C333CE33CED8F9FFADAEEF5DD6
:101F400070031A80E3AF037401A807088002C3334B
:101F5000D8FCF5AC7401A802088002C333D8FCFF9A
:101F6000F5AD8FAE53AACF90028A121C1D122EA47B
:101F700012283490028F12081F121C4D1207B1C391
:101F80001206F45006121C4D12081F90028B120705
:101F9000B1C00090028B1207997803120705D00098
:101FA0001205A690028B12081F90028B12079990BF
:101FB000002012081F43AA3090028AE0F5BA121BD3
:101FC000F722C0E0C0F0C083C082C0D075D008C284
:101FD000CFD21130CD0302206E20CC6030CB2285D1
:101FE000CE4FE54FC39480401675F003E54F902522
:101FF000D31208811208AF8B4C8A4D894E806380C2
:102000007385CE35E54F7022E535B410099002E0B6
:10201000E0F452808066E535B420089002E0E042AA
:10202000808059853546054F8052E54FC394055051
:10203000077446254FF8A635054F8040E54FB4C0DC
:10204000057546C08036E54FB4C2107853E630E2DD
:10205000057546A080267546A18021E54FC3948072
:102060004010784CE475F00112088D1204CCF5CEC6
:10207000800A054FE54B254FF8E6F5CED210D0D0BB
:10208000D082D083D0F0D0E032F0A3F0A3F0A3F060
:10209000A3F0A3F022D3900236E09400900235E042
:1020A000940022900238E09400900237E0940022DD
:1020B000900076E475F00112052B90028AE0FEA3F1
:1020C000E0C3FF900077E09F900076E09E22E2FE62
:1020D00008E2FFE0FCA3E0FD2290004A7808E2FF5E
:1020E00008E2CFF0A3EFF0229001E4E0FEA3E0FFCE
:1020F0009001D5E0FCA3E0FDD39FEC9E22FEC378C7
:1021000019E29F18E29E229001E4E0FFA3E0CF785D
:1021100014F208EFF222E29DFF18E29CFE90028A80
:10212000F0A3EFF022D390023AE09400900239E05D
:10213000940022903137E493FE740193FF22903192
:10214000377401932212003E90028B121C1D7800FE
:102150001208680000000090028A7405F075ABFF59
:10216000122EA478001207BD1228341205A678009A
:1021700012082BE4F5AB122EA478001207A5C004B8
:10218000C005C006C007122834A804A905AA06ABDA
:1021900007D007D006D005D0041205B37800120886
:1021A0002B90028AE014F0E070B378001207BD7F34
:1021B000007EC07D127C0012064C90028C12081F1B
:1021C00090028C1207999002A612081F7F967E003B
:1021D0007D007C00122D25E47B32FAF9F8C312064B
:1021E000F4500678567696800A90028C12079978F9
:1021F00056A60790028BE0F5BA121C42229002A26A
:102200001208A69002A5EDF0E4F525F52674FFF579
:1022100027F528E4F52EF52DF52CF52BF524900265
:10222000A5E0FFE524C39F50599002A212089D75B6
:10223000F002E524A4F58285F083120541F52A8594
:10224000F029D39526E52995254006852925852A57
:1022500026C3E52A9528E52995275006852927854F
:102260002A28E4FCFDE52E252AFFE52D3529FEED83
:10227000352CFDEC352B8F2E8E2D8D2CF52B05243A
:10228000809CE4852639852538F537F53685283D47
:1022900085273CF53BF53A852E41852D40852C3F21
:1022A000852B3E9002A5AF2EAE2DAD2CAC2B122F60
:1022B000422220CA03022353E5467003022353E45B
:1022C000FF74462FF8E6FE748B2FF582E43402F596
:1022D00083EEF0E4F60FEFB405E790028BE0FF54D5
:1022E000F0FEEF540F90028AF0AF06EF24A0601BBF
:1022F00024F0601F24D0602F24E0605D24E0605C47
:102300002490705F7853E6440180057853E654FECC
:10231000F68042E4FF12303F7855EFF67851BFFF68
:1023200003760A2276FF2290028AE0FD701278532B
:10233000E630E22F54FBF690025FE04408F080158F
:10234000ED6401701E7853E620E2184404F6900212
:102350005FE04404F0751C022202294CE49002352F
:10236000F0A3F0229002A212081FE47BE87A03F99E
:10237000F89002A2120DF39002B212081F9002B25E
:10238000120D53A804A905AA06AB079002A2120DCC
:10239000AB9002B6120F469002B2120D5A120DE423
:1023A0009002BA12081F9002A61207999002BA1260
:1023B0000D5AA804A905AA06AB079002AE120DABF0
:1023C0009002BE120F469002B6120D5A9002AE1243
:1023D000081F9002AE1207B1C000C001C002C003C6
:1023E0009002BE120D53D003D002D001D0001205CE
:1023F000A6120DE49002C212081FE47FE87E03FDDE
:10240000FC9002BA120D5A9002C2120DBA22122E7C
:102410005012315512313B122B3A122FA0122D5867
:102420001230D9D2AF751C01E51C24FE601E146069
:102430003614605314605D2404706412311E12302F
:10244000B01230C61230567F04122ECAD2D8E49091
:10245000022FF0A3F09002C6F0A3F0122CEFE51DBE
:1024600070FC122FDA8033D2D8E51D70FC12169959
:102470008F1C12253E9002DFE0900078F09002DF82
:1024800004F0122FDA801B122F168F1C1224A412B4
:10249000121A800E1217DD122FF4751C03800375BB
:1024A0001C0112315BE51C64047003022418122223
:1024B000A20224187F80903137E493FC740193FDCD
:1024C00012310E7F8290313774019324CEFDE49354
:1024D00034FFFC12310E7F847D647C0012310E7F4C
:1024E0008A3018187D397C3012310E7F887D397C16
:1024F0003012310E7F8C7D397C30801F7812E2FCE7
:1025000008E2FD12310E7F887816E2FC08E2FD1227
:10251000310E7F8C7814E2FC08E2FD12310E7F9AB6
:10252000C00790026C1230F5D00712310E7F98C0B0
:10253000079002701230F5D00712310E7F9CC00751
:102540009002741230F5D00712310E0228F43011C7
:1025500015123148744BF07F09122E2190023BEE88
:10256000F0A3EFF0C211A21492153002028020D322
:10257000900236E09400900235E0940050119002F1
:102580003CE0940090023BE09400500320100A12BB
:102590003148744BF0C21480081231487403F0D2F1
:1025A00014301408E4FF122DEF122F81A2153014FD
:1025B00001B3501790022AE06004D216800D7F020A
:1025C000122E21900239EEF0A3EFF090022AE07073
:1025D0000830160312294CC2162290023FE0700206
:1025E000A3E0705D30002578149001D51220BEC3A1
:1025F0009FEC9E5015C3122106C312212E9FE49317
:102600009E503512263240398029802C7814E2FE03
:1026100008E2FF7812E2FC08E2FDC39FEC9E501A2C
:10262000C37815122106D39432EE9400400A122684
:1026300032400E12294C80028000E490024AF0A33E
:10264000F0227F04122E21EEC313FEEF13FF90023F
:102650004AE475F00112052BFCD3E5F09FEC9E22B5
:10266000E490028AF090022AE07046122115403769
:102670009001E2E0FEA3E0FF9001D6E09FFF900111
:10268000D5E09EFEE4FCFD90028B12081F12212370
:102690007C007D03120519E4FD90028B1207B1D373
:1026A0001206DE4035802C1221231220EE402B80B2
:1026B0002230161012212E25E0FFE493331220ED74
:1026C0004018800F12212E24CEFFE49334FF1220F5
:1026D000ED400790028AE04401F090028AE0FF900A
:1026E00002DEF022780E1207A590028F12081F78E2
:1026F000041207A512005E9001CA12081F90006A1A
:102700001207999001CA1207B1C31206F450037F51
:1027100002229001CA12079912191D9001D5EEF0FC
:10272000A3EFF09001ECE0FFA3E0900200CFF0A354
:10273000EFF09001D5E0FEA3E0FF1213CC9001EC86
:10274000EEF0FCA3EFF0FD7808E2FE08E2FF1209CC
:1027500000900202EEF0A3EFF07812EEF208EFF232
:102760007F0522FE000AFE000E0100BE0100C60128
:1027700001CE0101360101CA0101D50101E60101C5
:10278000EC010202FE0012FE0014FE0016FE00180C
:10279000FE0000FE000401003E010042010046FE72
:1027A00000080102800102880102900102980102E2
:1027B000570100DE01013801026C0102740101D2EF
:1027C0000100CE01013801022101025901025B0121
:1027D000023590025FE030E109122811201803123F
:1027E000282190025FE054FDF090022CE0540FFF8E
:1027F000602790025FE0FE30E206785FA607801057
:10280000EE30E31C90022CE0540FC454F0785FF6D5
:1028100020180612281112282190025FE054F3F0CC
:1028200022C2107F07122E2190023DEEF0A3EFF09E
:1028300022C2927F217E007D007C00123027D2923E
:10284000221207B190001AE0FFEFC3940450055321
:10285000B9EF800343B910EF6003B4040B85B719D7
:1028600085B61A85B51B803AEF64016004EFB405A4
:102870000B85EB1985EA1A85E91B8026EF64026057
:1028800004EFB4060B85F31985F21A85F11B80124B
:10289000EF64036004EFB4070985FB1985FA1A8514
:1028A000F91BAF1BAE1AAD19AC1822C0E0C0F0C0C6
:1028B00083C082C0D075D01053B9FDE51D6401708E
:1028C0001F122834780012082B7F01122F5F90020C
:1028D000DFE0FF122BD443B901D2D8751D05801952
:1028E000E51DB40514121C15780A12082B121BC220
:1028F000F452AB53AAFB751D00D0D0D082D083D048
:10290000F0D0E032E47FB37E06FDFC78001207BD14
:10291000121B784003121BD47FFF121B9D400678C8
:10292000C076FF800A90028A12079978C0A607E451
:102930007F667E0DFDFC9000811207B1121B78406E
:1029400003121BD4E47FFF121B9E4005788E76FF96
:102950002290028A120799788EA60722E51D70FC44
:10296000E4FF121C61E4FF120F88E490022AF09049
:10297000022CF0900249F090023F12207990024719
:10298000F0A3F090024D12207912207C900063F0A9
:10299000A3F090028075F00112052BA2083000010F
:1029A000B3500D7F03122E21900237EEF0A3EFF00B
:1029B0002290026212083700000000E4FF122E7B12
:1029C00075ABFF122EA49002621228311205A69058
:1029D000026212081FE4F5AB122EA49002621207E5
:1029E00099C004C005C006C007122834A804A90570
:1029F000AA06AB07D007D006D005D0041205B390C5
:102A0000026202081F9002A512081F9002A212087B
:102A1000A69002A512079978031207189002A51232
:102A2000081F9002A9120E888005C333CE33CED87A
:102A3000F9120D7D9002A5120DBA9002A9E0F9F8E5
:102A4000120F0B9002A2120F40AF27AE26AD25AC9D
:102A5000247803120F0B2290029512081F90029205
:102A60001208A6900295120799780612071890028C
:102A70009512081F900299120E888005C333CE3339
:102A8000CED8F9120D7D900295120DBA900299E000
:102A9000F9F8120F17900292120F40AF27AE26AD31
:102AA00025AC247806120F17229002A512081F9059
:102AB00002A21208A69002A5120799780A12071816
:102AC0009002A512081F9002A9120E888005C33338
:102AD000CE33CED8F9120D7D9002A5120DBA900218
:102AE000A9E0F9F8120F239002A2120F40AF27AE0F
:102AF00026AD25AC24780A120F2322C0E0C0F0C016
:102B000083C082C0D075D000C000C28D758C327574
:102B10008AEB9002C6E475F00112052BC39002C740
:102B2000E094149002C6E09400401290022FA3E0BB
:102B3000785AF690022FE4F0A3F0120004D000D0EF
:102B4000D0D082D083D0F0D0E032E4FF12303F7892
:102B500055EFF67851BFFF04760A800276FFE478DD
:102B60005FF67852762D08F690313793FE74019314
:102B7000FF7880A60608A607EF24CE7883F6EE3409
:102B8000FF18F678847600087664E41230EBF612CB
:102B900030EB7614754B5022A907E4FEFD90025FDE
:102BA000E0FC703FEF5401FB90022BE054016B609E
:102BB0000D30020A201807EC440290025FF09002E8
:102BC0002BE030E006EE4410FE8004EE4401FEE906
:102BD00030E006ED4401FD8004ED4410FDEE5D9013
:102BE000022CF0229002DFE0D394034002E4F0EFE5
:102BF00014601214601714601D24037021121BC28C
:102C0000F452AB800D121BC2F452AB800E121BC2E9
:102C100042AB53AAFB22121BC242AB43AA0422902E
:102C200002A9E0FEA3E0FFC003C002C001120E2D06
:102C300075F002120EF1D001D002D003EE8FF01227
:102C400005799002A5120EBC120E2DFF9002A8E08D
:102C5000B50704E4120507227E05EF5401FD90023A
:102C60002AE054016D6007EFF0E4900249F07853D8
:102C7000E630E00890022AE070027E0A900249E005
:102C800004F0C39E50037F0022900249EEF07F01C2
:102C900022900298120799C003C002C001900294CA
:102CA000120E30120EEED001D002D0031207759032
:102CB0000294120EBC900294120E30FF900297E024
:102CC000B50704E412050722900299120799C00380
:102CD000C002C001900295120E30120EEED001D04B
:102CE00002D003120775900295120EBC9002951245
:102CF0000E30FF900298E0B50704E4120507227831
:102D000053E6F520A208300001B350147F03122EC1
:102D100021900237EEF0A3EFF012294CA2009208A6
:102D2000A20A300201B35004A202920A3013051223
:102D3000294CC213229002A212081F9002A6120769
:102D4000999002A21207B1D31206F4400B9002A68A
:102D50001207B19002A280099002A21207B190025C
:102D6000A61207991205B32243F80875CD4053CC3B
:102D70007F43CC4043CC2043CC1043CC0453CCFD08
:102D800043CB0243CB0153CBBFD2EB53E5FC43E330
:102D90000243F50343900343ED03229000251207FD
:102DA00099AB07AA0678041207A5C3EF9BFFEE9A1A
:102DB000FE7B017A00794CE4FCFD9002997408F0E6
:102DC000122A477808EEF208EFF27F05227814E223
:102DD000FE08E2FF7812E2FC08E2FDD39FEC9E4081
:102DE0000BED9F7817F2EC9E18F28006E47816F24D
:102DF00008F27816E2FF08E208CFF208EFF222E4C8
:102E0000F51D53B9FD53B9DF43CC02C2D9539FFD21
:102E1000438760C28DEF700675BD0D75BC01123021
:102E2000FD75BE0CD28C20C903438703000000004F
:102E3000227D017C00EFC394165020EF25E0240F83
:102E4000F582E43400F583E493FF7E00900231E0E4
:102E5000FCA3E0FD120519AC06AD07AE04AF0522D8
:102E6000E4F5E3439F107F03FEFDFC123027439FF0
:102E7000027F037E007D007C00123027539FEF7598
:102E8000BE0EE4F5BFF5B97592762253BA0F43BA78
:102E900080121BF1900024E0F5B4EF700AF5B375D1
:102EA000B26175B1A88006900021121C2E121C423E
:102EB00053AAFB2275BF0F000000000000000000B5
:102EC000000000000000000000D2D853B9FD43B953
:102ED00001E5B930E1FBE4F5BF22EF6003D38001E7
:102EE000C3920A92027853A607900231E4F0A374C9
:102EF0004BF07F08122E21900235EEF0A3EFF02266
:102F000090001AE090312E93FF900024F090001B67
:102F1000E090312E93FE900069F0EF4E42D442F4DF
:102F200042E4F452DC2290028A7405F0122D8B12D6
:102F300026D490028AEFF0BF0205D213E0FF2212DE
:102F40002DBD12300E90028AE0FF2274FFF5F002D0
:102F5000052BE0FBE4FAF9F812064C8F458E448D00
:102F6000438C4222AB34AA33A932A8310206F4536F
:102F7000BA0F43BA40121BF1900069E0F5B4EF704C
:102F800009F5B375B2AF75B1C822900066121C2E58
:102F900022E490028AF075BE0E439F027F03FEFD7D
:102FA000FC12302775BC02E4F5BFD2D953CCFD2208
:102FB000438901C28DD2A953B8FD12000390022F9C
:102FC000F0A3F0758C32758AEBD28CD2AF227814D4
:102FD000E2FE08E2FFD394F8EE942A5009C3EF947E
:102FE00028EE9423500312294C227F01122E7B7568
:102FF0001D0175BF0F43B92053B9FD43BA0143B951
:1030000001D2D82290022DE0FF90022CE0FE6F60EA
:1030100007300204785FA60690022DEEF0227FC2F0
:103020007E2D7D017C0078041207BDD31206F4408A
:1030300003C21822D2182290028B12081F90028B12
:1030400074FF1207ECEC4D4E4F60030080EF22E45A
:10305000FFF582F5837440FEE493F42FFFA3EEB5F1
:1030600083F6227F0022E490023DF0A3F07F091254
:103070002E2190023BEEF0A3EFF0D2102243D504B4
:1030800053F5FB53E5FB43E30443ED04E490025F97
:10309000F0D2922241001A0041001B0644001CFF9E
:1030A000FFFFFF04180000000000D3EF9DEE9C40DE
:1030B00007EF9DFFEE9CFE22C3ED9FFFEC9EFE22DC
:1030C000E4FF122E7B122135121EEA7F01122E7BA5
:1030D000121C610229A1E4FF122F5F12314F121E50
:1030E000147F01122F5F020F88903139E493FF742F
:1030F000019390006ECFF0A3EFF02208F608F608D7
:10310000F608F60822120799AD07AC06224389019A
:10311000C28CC28F120003758CFB758AED2220C908
:103120000CC2AFA807A60408A605D2AF222275AA32
:103130003B53BAF343BA0843B92053B9BF22010243
:103140000408102040803303200064C2DA53D80FF3
:1031500043D8D0D2D8D2D922900231E4F0A3227839
:1031600056E608F622122EF002306D0227C2FFFF4B
:00000001FF
